:0300000002025B9E
:0C025B0078FFE4F6D8FD75810E0202A2C7
:053FFB00FFD75AA55F8D
:0404010002080000ED
:1003A500758E7075E50575E669E4F58E1203E5123F
:0703B50003BC75865A80FBB2
:10000600E4FDFC75865AE4FBFAC3EB9FEA9E5007B3
:100016000BBB00010A80F20DBD00010CED64644CBF
:0200260070E187
:0100280022B5
:0E03E50053E80F43FDF0758F02D2A8D2AF226D
:0300030002002ECA
:10002E00C0E0C0F0C083C082C0D075D000C000C098
:0D003E0001C002C003C004C005C006C00719
:10004B00758F00C2EC43E8EFE4FF0FBF08FC20A460
:10005B0003750E0D20A503750E0920A603750E055D
:10006B0020A703750E0143E8DFC2ED7F000FBF0829
:10007B00FC20A403750E0E20A503750E0A20A60303
:10008B00750E0620A703750E0243E8BFC2EE7F0074
:10009B000FBF08FC20A403750E0F20A503750E0BD4
:1000AB0020A603750E0720A703750E0343E87FC236
:1000BB00EF7F000FBF08FC20A403750E1020A503D3
:1000CB00750E0C20A603750E0820A703750E04539E
:1000DB00E80F7F0AE50E120167010602010A05010E
:1000EB000E06011207011609011A0A011E0B012245
:1000FB000D01260E012A0F0000012C7F0080227FAC
:10010B0001801E7F02801A7F0380167F0480127F7E
:10011B0005800E7F06800A7F0780067F0880027F9E
:0D012B0009EFC3940A50031202E7758F021A
:10013800D007D006D005D004D003D002D001D0001B
:0B014800D0D0D082D083D0F0D0E032C5
:1003D100F97AFA21FAC8FB6FFC16FCBDFD50FE0B41
:0403E100FEB2FF5910
:1003BC007F091202E775C84175C102E50CF5CD85C0
:0503CC000DCCD2AD22B2
:03002B000203F3DA
:0E03F300C0E0E50CF5CD850DCCC2C6D0E032E1
:1002E700EF25E024D1F582E43403F583E493F50C9C
:1002F700740193F50DAE0CFBAA06E4C39BFFE49AC9
:10030700FE74019400FDE49400FCE47B02FAF9F822
:10031700120361A804A905AA06AB07E4FCFDEB25B7
:100327000DFFEA350CFEED39FDEC38FC78081201BB
:10033700538FCBAE0CAF0DAB07AA06E4C39BFFE40C
:100347009AFE74019400FDE49400FCE47B02FAF940
:0A035700F8120361E50D2FF5CA222C
:100267000203A5E493A3F8E493A34003F68001F205
:1002770008DFF48029E493A3F85407240CC8C33398
:10028700C4540F4420C8834004F456800146F6DF67
:10029700E4800B0102040810204080900401E47EF2
:1002A700019360BCA3FF543F30E509541FFEE4935C
:1002B700A360010ECF54C025E060A840B8E493A323
:1002C700FAE493A3F8E493A3C8C582C8CAC583CA4E
:1002D700F0A3C8C582C8CAC583CADFE9DEE780BE06
:0104050000F6
:10036100C2D5E830E70FB2D5E4C39BFBE49AFAE4C7
:1003710099F9E498F8EC30E717B2D5120397120116
:10038100C9E4C39BFBE49AFAE499F9E498F8800381
:100391001201C930D50DE4C39FFFE49EFEE49DFD2B
:0403A100E49CFC22BA
:10015300E86010ECA2E713FCED13FDEE13FEEF13C2
:04016300FFD8F022AF
:10016700D083D082F8E4937012740193700DA3A327
:1001770093F8740193F5828883E47374029368603B
:06018700EFA3A3A380DF3B
:10018D0075F008758200EF2FFFEE33FECD33CDCC29
:10019D0033CCC58233C5829BED9AEC99E5829840AC
:1001AD000CF582EE9BFEED9AFDEC99FC0FD5F0D689
:1001BD00E4CEFBE4CDFAE4CCF9A88222B800C1B9B3
:1001CD000059BA002DEC8BF084CFCECDFCE5F0CBF1
:1001DD00F97818EF2FFFEE33FEED33FDEC33FCEB2A
:1001ED0033FB10D703994004EB99FB0FD8E5E4F9E5
:1001FD00FA227818EF2FFFEE33FEED33FDEC33FCD2
:10020D00C933C910D7059BE99A4007EC9BFCE99AC5
:10021D00F90FD8E0E4C9FAE4CCFB2275F010EF2F0A
:10022D00FFEE33FEED33FDCC33CCC833C810D7070A
:10023D009BEC9AE899400AED9BFDEC9AFCE899F845
:0E024D000FD5F0DAE4CDFBE4CCFAE4C8F922D8
:00000001FF
