:020000040000FA
:1000000000020020D5000000DF00000029010000F0
:1000100000000000000000000000000000000000E0
:10002000000000000000000000000000E3000000ED
:100030000000000000000000E5000000E7000000F4
:10004000E9000000E9000000E900000000000000F5
:100050000000000000000000E900000000000000B7
:100060000000000000000000E900000000000000A7
:10007000E9000000E9000000E9000000E9000000DC
:10008000E9000000E9000000E9000000E9000000CC
:10009000E9000000E9000000E9000000E9000000BC
:1000A000E9000000E90000002D010000E900000067
:1000B000E9000000E9000000E9000000E90000009C
:1000C0000348854600F018F800480047690300001F
:1000D0000002002005480649016006480047FEE787
:1000E000FEE7FEE7FEE7FEE7FEE700005000064001
:1000F0000000A5A5C10000001CB5094800900948F2
:10010000019005460126009C05E0E36807CC3343D7
:100110000C3C98471034AC42F7D3FFF7D5FF0000F2
:10012000C4030000D403000000F010F9024908687D
:100130000422904308607047140006407047000096
:10014000094900200860094908600949086009490F
:100150000860094AC0211160084908600849086020
:10016000084908607047C04620200440242004400D
:10017000502004404020044000200440042004405B
:10018000142004409020044082B001900198009017
:10019000002808D0FFE7009801280AD0FFE7009860
:1001A000032818D029E01649086801229043086006
:1001B00023E054495448086011490868012210435B
:1001C0000860FFE70F48006801210840012801D0BE
:1001D000FFE7F7E711E04B494D4808600849086818
:1001E000032210430860FFE7064800680121084029
:1001F000012801D0FFE7F7E7FFE702B07047C046EC
:10020000000006400800064084B00390029101926D
:100210003C493F48086002980199C90040182749A5
:10022000086003982649086003980090042841D884
:100230000098810001A040588746C0465102000046
:1002400065020000790200008D020000A10200009A
:10025000FFE71B4800684006400F002801D0FFE779
:10026000F7E728E0FFE716480068702108401028EB
:1002700001D0FFE7F7E71EE0FFE7114800687021B3
:100280000840202801D0FFE7F7E714E0FFE70C481B
:10029000006870210840302801D0FFE7F7E70AE046
:1002A000FFE70748006870210840402801D0FFE7B9
:1002B000F7E700E0FFE704B07047C04610000640D3
:1002C0000C00064081B0009000980C49884204D38D
:1002D000FFE70C490E4808600DE000980849884285
:1002E00004D3FFE707490948086003E005490648C9
:1002F0000860FFE7FFE701B07047C046016CDC0211
:1003000000366E01002006400000FA5A1900FA5A21
:100310002900FA5A82B001900091019A08490868B0
:1003200052075208074B184080180860009A064987
:1003300008685207520818408018086002B07047D9
:1003400000E00540FFFFFF8F08E00540BFF34F8F3F
:10035000034904480860BFF34F8FFFE700BFFDE784
:100360000CED00E00400FA0580B584B00020019097
:100370000390FFF7E5FEFFF7E1FE01200290FFF793
:1003800003FF019A10461146FFF73EFF0448FFF7AE
:1003900099FF02990420FFF7BDFFFFE7FEE7C04683
:1003A000001BB70002E008C8121F08C1002AFAD1DA
:1003B00070477047002001E001C1121F002AFBD1E5
:1003C00070470000D403000000000020000200007D
:0403D000B403000072
:020000040000FA
:047FFC005555AAAA83
:04000005000000C136
:00000001FF
