:0300000002016F8B
:0C016F0078FFE4F6D8FD7581110201B69E
:053FFB00FFD75AA55F8D
:04036200020D000088
:10031600758E7075E50575E669E4F58E120347126C
:10032600035575865A7F017E001202F31202B980C8
:01033600F1D5
:1002F300E4FDFC75865AE4FBFAC3EB9FEA9E5007C4
:100303000BBB00010A80F20DBD00010CED64644CCF
:0203130070E197
:0103150022C5
:0E03470053E80F43FDF0758F02D2A8D2AF220B
:03000300020006F2
:10000600C0E0C0F0C083C082C0D075D000C000C0C0
:0D00160001C002C003C004C005C006C00741
:10002300758F00C2EC43E8EFE4FF0FBF08FC20A488
:100033000375110D20A50375110920A6037511057C
:1000430020A70375110143E8DFC2ED7F000FBF084E
:10005300FC20A40375110E20A50375110A20A60325
:1000630075110620A70375110243E8BFC2EE7F0096
:100073000FBF08FC20A40375110F20A50375110BF6
:1000830020A60375110720A70375110343E87FC258
:10009300EF7F000FBF08FC20A40375111020A503F8
:1000A30075110C20A60375110820A70375110453BD
:0C00B300E80FAF117E001201FB758F02F8
:1000BF00D007D006D005D004D003D002D001D00095
:0B00CF00D0D0D082D083D0F0D0E0323F
:100337003F065B4F666D7D077F6F777C395E79710E
:030366000108008B
:0D035500E4F5B075FCFF53FEF043FE0F22EF
:1002B900C2F8C2F9C2FAC2FBE50814600E14600F55
:1002C9001460102403700ED2F8800AD2F98006D285
:1002D900FA8002D2FB74092508F8E6F5B00508E5AD
:0902E90008D394034003E4F50876
:0102F20022E9
:1000DA00AB07AA06D3EB940FEA9427400D750940A3
:1000EA00750A40750B40750C40227C007D0AAF03EF
:1000FA00AE0212026474372DF58274033CF583E470
:10010A0093F50C7C007D0AAF03AE02120264AA06C4
:10011A00AB077C007D0A12026474372DF5827403E2
:10012A003CF583E493F50B7C007D0AAF03AE021223
:10013A000264AA06AB077C007D0A12026474372D9A
:10014A00F58274033CF583E493F50A7C007D0AAFDB
:10015A0003AE0212026474372FF58274033EF583EC
:05016A00E493F50922F9
:1001FB007C00EF540F2437F582EC3403F583E49342
:10020B00F50CEEC4F854F0C868FEEFC4540F48FF69
:10021B00540F2437F582EC3403F583E493F50BEE9E
:10022B00C4F854F0C868FEEFC4540F48FF540F24B1
:10023B0037F582EC3403F583E493F50AEEC4F854F6
:10024B00F0C8EFC4540F487E00540F2437F582EEEC
:09025B003403F583E493F5092254
:10017B00020316E493A3F8E493A34003F68001F281
:10018B0008DFF48029E493A3F85407240CC8C33385
:10019B00C4540F4420C8834004F456800146F6DF54
:1001AB00E4800B0102040810204080900362E47E7F
:1001BB00019360BCA3FF543F30E509541FFEE49349
:1001CB00A360010ECF54C025E060A840B8E493A310
:1001DB00FAE493A3F8E493A3C8C582C8CAC583CA3B
:1001EB00F0A3C8C582C8CAC583CADFE9DEE780BEF3
:010369000093
:10026400BC000BBE0029EF8DF084FFADF022E4CC7E
:10027400F875F008EF2FFFEE33FEEC33FCEE9DEC47
:10028400984005FCEE9DFE0FD5F0E9E4CEFD22ED8D
:10029400F8F5F0EE8420D21CFEADF075F008EF2FD7
:1002A400FFED33FD4007985006D5F0F222C398FDC8
:0502B4000FD5F0EA2265
:00000001FF
