:0300000002009863
:0C00980078FFE4F6D8FD7581100200DF4F
:053FFB00FFD75AA55F8D
:100264003F065B4F666D7D077F6F777C395E7971E2
:0302810001080071
:0D027400E4F5B075FCFF53FEF043FE0F22D1
:1001E200C2F8C2F9C2FAC2FBE50814600E14600F2D
:1001F2001460102403700ED2F8800AD2F98006D25D
:10020200FA8002D2FB74092508F8E6F5B00508E584
:0902120008D394034003E4F5084D
:01021B0022C0
:10000300AB07AA06D3EB940FEA9427400D7509407A
:10001300750A40750B40750C40227C007D0AAF03C6
:10002300AE0212018D74642DF58274023CF583E4F3
:1000330093F50C7C007D0AAF03AE0212018DAA0674
:10004300AB077C007D0A12018D74642DF582740266
:100053003CF583E493F50B7C007D0AAF03AE0212FB
:10006300018DAA06AB077C007D0A12018D74642DF5
:10007300F58274023CF583E493F50A7C007D0AAFB4
:1000830003AE0212018D74642FF58274023EF58370
:05009300E493F50922D1
:100124007C00EF540F2464F582EC3402F583E493ED
:10013400F50CEEC4F854F0C868FEEFC4540F48FF41
:10014400540F2464F582EC3402F583E493F50BEE4A
:10015400C4F854F0C868FEEFC4540F48FF540F2489
:1001640064F582EC3402F583E493F50AEEC4F854A2
:10017400F0C8EFC4540F487E00540F2464F582EE97
:090184003402F583E493F509222D
:10021C00758E7075E50575E669E4F58E1202747FCE
:10022C008A7E0C12000375865A7F0A7E00120241E8
:05023C001201E280F157
:10024100E4FDFC75865AE4FBFAC3EB9FEA9E500776
:100251000BBB00010A80F20DBD00010CED64644C82
:0202610070E14A
:010263002278
:1000A40002021CE493A3F8E493A34003F68001F254
:1000B40008DFF48029E493A3F85407240CC8C3335D
:1000C400C4540F4420C8834004F456800146F6DF2C
:1000D400E4800B0102040810204080900281E47E39
:1000E400019360BCA3FF543F30E509541FFEE49321
:1000F400A360010ECF54C025E060A840B8E493A3E8
:10010400FAE493A3F8E493A3C8C582C8CAC583CA12
:10011400F0A3C8C582C8CAC583CADFE9DEE780BECA
:010284000079
:10018D00BC000BBE0029EF8DF084FFADF022E4CC56
:10019D00F875F008EF2FFFEE33FEEC33FCEE9DEC1F
:1001AD00984005FCEE9DFE0FD5F0E9E4CEFD22ED65
:1001BD00F8F5F0EE8420D21CFEADF075F008EF2FAF
:1001CD00FFED33FD4007985006D5F0F222C398FDA0
:0501DD000FD5F0EA223D
:00000001FF
