:0300000002009B60
:0C009B0078FFE4F6D8FD75810E0200E24B
:053FFB00FFD75AA55F8D
:0402B500020D000036
:10021F00758E7075E50575E669E4F58E12029A1212
:10022F0002A875865A7F0A7E001202471201E5AFB7
:08023F000EAE0D12000680EA6C
:10024700E4FDFC75865AE4FBFAC3EB9FEA9E500770
:100257000BBB00010A80F20DBD00010CED64644C7C
:0202670070E144
:010269002272
:10028A003F065B4F666D7D077F6F777C395E7971BC
:0302B90001080039
:0D02A800E4F5B075FCFF53FEF043FE0F229D
:1001E500C2F8C2F9C2FAC2FBE50814600E14600F2A
:1001F5001460102403700ED2F8800AD2F98006D25A
:10020500FA8002D2FB74092508F8E6F5B00508E581
:0902150008D394034003E4F5084A
:01021E0022BD
:10000600AB07AA06D3EB940FEA9427400D75094077
:10001600750A40750B40750C40227C007D0AAF03C3
:10002600AE02120190748A2DF58274023CF583E4C7
:1000360093F50C7C007D0AAF03AE02120190AA066E
:10004600AB077C007D0A120190748A2DF58274023A
:100056003CF583E493F50B7C007D0AAF03AE0212F8
:100066000190AA06AB077C007D0A120190748A2DC6
:10007600F58274023CF583E493F50A7C007D0AAFB1
:1000860003AE02120190748A2FF58274023EF58344
:05009600E493F50922CE
:100127007C00EF540F248AF582EC3402F583E493C4
:10013700F50CEEC4F854F0C868FEEFC4540F48FF3E
:10014700540F248AF582EC3402F583E493F50BEE21
:10015700C4F854F0C868FEEFC4540F48FF540F2486
:100167008AF582EC3402F583E493F50AEEC4F85479
:10017700F0C8EFC4540F487E00540F248AF582EE6E
:090187003402F583E493F509222A
:0E029A0053E80F43FDF0758F02D2A8D2AF22B9
:0300030002026A8C
:10026A00C0E0C0D0050EE50E7002050DD3940FE56F
:10027A000D94274006750D00750E00D0D0D0E032DF
:1000A70002021FE493A3F8E493A34003F68001F24E
:1000B70008DFF48029E493A3F85407240CC8C3335A
:1000C700C4540F4420C8834004F456800146F6DF29
:1000D700E4800B01020408102040809002B5E47E02
:1000E700019360BCA3FF543F30E509541FFEE4931E
:1000F700A360010ECF54C025E060A840B8E493A3E5
:10010700FAE493A3F8E493A3C8C582C8CAC583CA0F
:10011700F0A3C8C582C8CAC583CADFE9DEE780BEC7
:0102BC000041
:10019000BC000BBE0029EF8DF084FFADF022E4CC53
:1001A000F875F008EF2FFFEE33FEEC33FCEE9DEC1C
:1001B000984005FCEE9DFE0FD5F0E9E4CEFD22ED62
:1001C000F8F5F0EE8420D21CFEADF075F008EF2FAC
:1001D000FFED33FD4007985006D5F0F222C398FD9D
:0501E0000FD5F0EA223A
:00000001FF
