:030000000201D921
:0C01D90078FFE4F6D8FD75812002019447
:053FFB00FFD75AA55F8D
:0701E50043801843F91822C2
:1001C600EF14600904700BED24FF928322ED24FFE7
:0301D600928422EE
:1000030043F3F053FB0F53FD0F43FD10C2ECE4FF2A
:100013000FBF08FCA2A6E43325E025E0FFA2A7E476
:100023003375F008A44FFFA2A5E43325E04FFFA2E8
:10003300A4E4334FF50BD2EC53FDEF43FD20C2EDA7
:10004300E4FF0FBF08FCA2A6E43375F040A4FFA2AF
:10005300A7E43375F080A44FFFA2A5E433C433545F
:10006300E04FFFA2A4E433C454F04F420BD2ED534C
:10007300FDDF75FD40C2EEE4FF0FBF08FCA2A6E45E
:100083003325E025E0FFA2A7E43375F008A44FFF72
:10009300A2A5E43325E04FFFA2A4E4334FF50CD22D
:1000A300EE53FDBF43FD80C2EFE4FF0FBF08FCA288
:1000B300A6E43375F040A4FFA2A7E43375F080A44F
:1000C3004FFFA2A5E433C43354E04FFFA2A4E433AB
:1000D300C454F04F420CD2EF53FD7F630BFF630C0C
:1000E300FFE50BB51716E50CB51811300019E50E31
:1000F300701585170985180AC200800B850B1785B3
:100103000C18D200750E0AE50E6002150EE50A659D
:100113001A60047F0180027F00E509651960047E8F
:090123000180027E00EE4F6044F1
:10012C00E519703AE51A7036E5096004F517800395
:10013C00850A17751B09751C80151BE51B601FE5CF
:10014C001C551760112083047D0180027D00E4FFA3
:10015C001201C6751B01E51CC313F51C80DB850958
:04016C0019850A1ACD
:01017000226C
:1001B200740F250DF8A608050DE50DC3940840033C
:0401C200E4F50D2231
:10019400758E7075E50575E669E4F58E1201E575F1
:0E01A400865A7F017E0012017112000380F165
:10017100E4FDFC75865AE4FBFAC3EB9FEA9E500747
:100181000BBB00010A80F20DBD00010CBC03E4BDF4
:02019100E8E1A3
:010193002249
:00000001FF
