:020000040000FA
:1000000010020020D5000000DF0000000703000000
:1000100000000000000000000000000000000000E0
:10002000000000000000000000000000E3000000ED
:100030000000000000000000E5000000F9030000DF
:10004000E9000000E9000000E900000000000000F5
:100050000000000000000000E900000000000000B7
:100060000000000000000000E900000000000000A7
:10007000E9000000E9000000E9000000690100005B
:10008000E9000000E9000000E9000000E9000000CC
:10009000E9000000E9000000E9000000E9000000BC
:1000A000E90000002D060000E9000000E900000062
:1000B000E9000000E9000000E9000000E90000009C
:1000C0000348854600F038F8004800473D07000027
:1000D0001002002005480649016006480047FEE777
:1000E000FEE7FEE7FEE7FEE7FEE700005000064001
:1000F0000000A5A5C100000070B50446002903D08A
:1001000000202022012310E0002801D00020C0435D
:10011000C046C0460DE02546D5408D4205D30D466C
:100120009540641B1D46954040191546521E002DF2
:10013000F1DC214670BD00001CB50948009009485B
:10014000019005460126009C05E0E36807CC334397
:100150000C3C98471034AC42F7D3FFF7B5FF0000D2
:100160009C070000AC07000081B057480068009071
:1001700079480068C00700281FD0FFE7684600786C
:10018000C007002818D0FFE7504A1168012001433A
:1001900011604F4908604F490868401C0860642896
:1001A00009D1FFE74B4900200860A04908680122F7
:1001B00050400860FFE7FFE7FFE767480068000777
:1001C000C00F00280FD0FFE768460078800700289E
:1001D00008D5FFE73D4A11680220014311603C4900
:1001E0000860FFE7FFE75C4800684006C00F002892
:1001F0000FD0FFE7684600784007002808D5FFE7E2
:10020000324A116804200143116031490860FFE758
:10021000FFE7514800688005C00F00280FD0FFE7B6
:10022000684600780007002808D5FFE7274A1168CC
:1002300008200143116026490860FFE7FFE74648B0
:1002400000688000C00F00280FD0FFE768460078E4
:100250008006002808D5FFE71C4A116820200143CA
:1002600011601B490860FFE7FFE71B480068400773
:10027000C00F00280FD0FFE768460078C0060028AE
:1002800008D5FFE7114A1168102001431160104999
:100290000860FFE7FFE7114800684000C00F002832
:1002A00010D0FFE76846C0780006002809D5FFE7B0
:1002B000064A11680120C007014311600449086023
:1002C000FFE7FFE701B07047380000400C00002056
:1002D0003C0000400000002028000040E0000040FA
:1002E00002490868202210430860704700E005407A
:1002F00080B582B00F20019000F0E6F9019800F07F
:10030000F9F902B080BD00F00BFA000080B5FFF7EC
:10031000E7FF0F490F4808600F49032008600120DC
:10032000810702200860FFE701208007006880073E
:10033000002801D5FFE7F7E701229107086810437D
:1003400008600F2000F0ACF9FFF7D2FF80BDC04677
:1003500018000040E02E000014000040704700002C
:1003600009490020086009490860094908600949ED
:100370000860094AC02111600849086008490860FE
:10038000084908607047C0462020044024200440EB
:100390005020044040200440002004400420044039
:1003A000142004409020044080B582B0019083481E
:1003B0000168019848437D21C900FFF79DFE009028
:1003C00000980949884204D3FFE7084908480860B3
:1003D00004E00098401E05490860FFE70549002039
:1003E000086002B080BDC0460100000114E000E0DA
:1003F000FFFFFF0018E000E0154908680122120421
:100400001043086008490868401C0860322809D178
:10041000FFE70549002008600449086802225040AF
:100420000860FFE77047C0460400002000800440D9
:1004300080B500F00FF80A20FFF7B6FF04490868FE
:1004400001221204104308600720086080BDC046E6
:1004500010E000E080B586B0714800684006400FAB
:10046000049004283CD80498810001A04058874695
:1004700085040000A5040000AF040000B7040000DC
:10048000C1040000654800688007C00F002804D13F
:10049000FFE74A494D48086003E048494948086079
:1004A000FFE71EE045497D200002086019E043494E
:1004B0004548086015E041490120C003086010E08C
:1004C0003D480068C004C00F002804D1FFE73B4945
:1004D0003C48086003E0394939480860FFE700E01C
:1004E000FFE75048006807210840039007282DD8EF
:1004F0000398810001A040588746C0461D050000B2
:1005000023050000290500002F0500003505000027
:100510003B05000041050000470500000120059053
:1005200015E00220059012E0042005900FE008205D
:1005300005900CE01020059009E02020059006E0D1
:100540004020059003E08020059000E0FFE705993A
:100550001A4802900068FFF7CFFD02990860314801
:1005600000680007C00F00280AD0FFE71348019079
:10057000006840000321FFF7BFFD01990860FFE715
:100580000E4800681249884204D3FFE71249144814
:1005900008600EE0094800680E49884204D3FFE76E
:1005A0000D490E48086003E00B493B480860FFE72F
:1005B000FFE706B080BDC0460400064008000020EA
:1005C0000090D003006CDC020024F400001BB70094
:1005D000016CDC0200366E01002006401900FA5A58
:1005E0002900FA5A0D4908680222904308600C4914
:1005F00000200860FFE70A4800684006400F002816
:1006000001D0FFE7F7E7074A0020106011680823D0
:1006100099431160044908607047C04600000640D5
:100620000C00064010000640300006405149524878
:10063000086011490868184A104304229043086072
:100640007047C04680B582B0002001900198042117
:100650008843019001981049084301900198064988
:10066000009108603D2000F00BF800990868034AEB
:100670001043086002B080BD000001400100FA5A3A
:1006800081B0009000980449084304490860394942
:100690003948086001B070470000FA5A080001406C
:1006A00081B001466846017000214056002809D4F7
:1006B000FFE7684601781F200140012088400C496F
:1006C0000860FFE701B0704781B0014668460170DD
:1006D00000214056002809D4FFE7684601781F2012
:1006E00001400120884002490860FFE701B07047DF
:1006F00080E200E081B0014668460170002140566A
:10070000002809D4FFE7684601781F200140012036
:10071000884002490860FFE701B0704700E100E04F
:10072000BFF34F8F034904480860BFF34F8FFFE7C3
:1007300000BFFDE70CED00E00400FA0580B582B0D3
:1007400000200190FFF74EFFFFF784FEFFF708FE41
:10075000FFF704FE064903200860FFF7D7FDFFF707
:1007600067FEFFF76FFFFFE7024903480860FBE7FA
:10077000048004400C000140AA55FA5A02E008C85F
:10078000121F08C1002AFAD170477047002001E00B
:1007900001C1121F002AFBD170470000AC07000006
:0C07A00000000020100200008C07000088
:020000040000FA
:047FFC005555AAAA83
:04000005000000C136
:00000001FF
