:0300000002007685
:0C00760078FFE4F6D8FD75810702000356
:053FFB00FFD75AA55F8D
:10000300758E7075E50575E669E4F58E12008275E7
:10001300865AE4FDFF120063E4FD7F011200637F53
:10002300647E001200407D01E4FF1200637D017FC6
:0D003300011200637F647E0012004080D245
:10004000E4FDFC75865AE4FBFAC3EB9FEA9E500779
:100050000BBB00010A80F20DBD00010CBC07E4BD22
:02006000D0E1ED
:01006200227B
:0700820043801843F9182226
:10006300EF14600904700BED24FF928322ED24FF4B
:0300730092842252
:00000001FF
