:020000040000FA
:1000000098020020810100008B0100004D030000D8
:1000100000000000000000000000000000000000E0
:100020000000000000000000000000008F01000040
:10003000000000000000000091010000930100009A
:1000400095010000950100009501000000000000EE
:10005000000000000000000095010000000000000A
:100060000000000000000000690300000000000024
:100070009501000095010000950100002902000093
:100080006502000095010000950100009501000047
:100090009501000095010000950100009501000008
:1000A0009501000045060000950100009501000043
:1000B000ED040000E1040000D5040000C9040000C4
:1000C00000F002F800F04CF812A030C808382418EC
:1000D0002D18AC4201D100F043F80FCCA246AB463C
:1000E0000CA730CF2D1B083F3F197C427F1E544484
:1000F0002D090426F441641EAC4201D300F030F80F
:100100000126334200D0FB1A3343984754465D46DC
:10011000DFE700002C1500004C150000103A02D358
:1001200078C878C1FAD8520701D330C830C101D598
:1001300004680C6070470000704700000023002432
:1001400000250026103A01D378C1FBD8520700D30E
:1001500030C100D50B6070471FB51FBD10B510BD75
:1001600000F02FF81146FFF7F7FF00F0D3FA00F088
:1001700047F803B4FFF7F2FF03BC00F04DF80000AE
:1001800008480949016009480047FEE7FEE7FEE725
:10019000FEE7FEE7FEE7000005480649044A064B75
:1001A00070470000500006400000A5A5C1000000F7
:1001B00098000020980200209800002070477047A7
:1001C0007047754600F024F8AE4605006946534670
:1001D000C008C000854618B020B5FFF7DDFF60BC41
:1001E000B64600260027C0C5C0C5C0C5C0C5C0C52D
:1001F000C0C5C0C5C0C5403D490849008D467047CF
:1002000010B50446C046C0462046FFF7B2FF10BDF9
:10021000004870470800002001491820ABBEFEE7E7
:1002200026000200704700000148016841607047E5
:10023000380000405748016820220A43026001202C
:1002400081071B4A0A6400228A614961044A4A63A1
:1002500002220A600A689207FCD408607047C04610
:1002600011001000044801688A0602D5034A0123E0
:10027000137089B241607047382000409000002020
:100280004448016840220A43026008480849016462
:100290000321490741610221016001688907FCD4FB
:1002A00001210160080403490860704700200040F4
:1002B000DF2E000000E100E0B0B50C48FF214160F6
:1002C0000F214A020A494A600A4A13785B1CDCB2D1
:1002D000032C00D900235CB2A40007A52C590C60A4
:1002E0001370D9B2084A515C0160B0BD244004408B
:1002F000246004406C0000200002000000040000A4
:1003000000080000001000008C0000206A48F02166
:100310000160674A11600B49FF220A604A620F219F
:10032000490202680A430260416201200102064A52
:1003300013680B431360116240021168014311609E
:10034000106270470440044004A00440BFF34F8F84
:10035000034804490160BFF34F8F00BFFDE7C0466B
:100360000CED00E00400FA050120C00327490860F5
:100370007047C04601204105064A13680B431360CD
:100380001A490E220A624A6200020A6802430A609F
:100390007047C04600E005400120C0031349486093
:1003A0000A68202313430B604A680242FCD070475E
:1003B0000120C0030D4948600A68102313430B60F5
:1003C0004A680242FCD070470121CA0307494A60CB
:1003D000002801D0022000E004200B6803430B60DA
:1003E00048681042FCD0C868C0B270470080014025
:1003F0000121CA0305490A60486008681042FCD020
:100400000868022101404842484170470480014089
:10041000F0B581B0264D2868F024A04328606868B4
:10042000244908406860244E30682043306074627C
:10043000012000F0FBF8281F00680006070F14D009
:100440003068A043306070681A49084070602868BE
:10045000204328606C62012000F0E8F8301F00683B
:100460002040C019FF22424000E00022134B1978BF
:100470008A4216D1124A1378DC080020182C0ED8B4
:100480005B1C1370DAB2322A09D10E4B1A7819703C
:10049000914204D04A40114000D10A46104601B0B2
:1004A000F0BD0749002008701A7001B0F0BDC046C9
:1004B00004800440FF00FFFF046004408800002027
:1004C0008A0000208900002001480B490160704724
:1004D0002040044001480849016070472060044002
:1004E00001480549016070472080044001480249E5
:1004F0000160704720A00440FF3F00000648002133
:100500000162416201650A220264012202604160C7
:10051000416102480160704700200440902004407F
:1005200070B5264D281F00684006410F244C042951
:1005300020D87D200002C0467944097949008F44C3
:1005400002171113090028461038006880070ED5DD
:1005500020460DE028460C380068C004204607D528
:10056000184805E0184803E00120C00300E01748E0
:100570001749086028684007C00E16A10958144E94
:10058000306800F059FF30602968090704D5400041
:10059000032100F051FF306031683748154A91421D
:1005A00004D80246A14205D9293004E00246193296
:1005B000A142F9D810461049086070BD10000640ED
:1005C000006CDC020090D0030024F400001BB70094
:1005D000680000200100000002000000040000008C
:1005E0000800000010000000200000004000000093
:1005F00080000000FF356E01002006400A480146D9
:1006000010390A6802239A430A60021F0021116010
:1006100013685B065B0FFBD10160026808239A43F5
:10062000026001627047C0461000064081B00E2192
:10063000414300910098411E00910028FAD101B079
:10064000704700000B480D49C16001680A4A0A431F
:1006500004218A43026070470648074901600A4640
:100660003D328260054AC26002680A43012111439B
:1006700001607047000001400000FA5AAA55FA5A7A
:10068000F0B581B01D4614460F460646FFF784FEBE
:10069000FE203040FFF7ACFE01281AD03846FFF7A5
:1006A000A7FE012815D0FFF777FE3046FFF7A0FE22
:1006B00001280ED0022D08D30020FFF785FE207000
:1006C000641C6D1EA8B20128F6D80120FFF77CFE3D
:1006D0002070FFF76DFE01B0F0BDF0B581B01C4693
:1006E00015460E460746FFF757FE3846FFF780FED1
:1006F000012803D1FFF75CFE01B0F0BD3046FFF7E3
:1007000077FE0128F6D02004F4D028786D1C641EF2
:10071000F5E7000000B591B0FFF770FFFFF700FFAD
:10072000FFF7ECFEE54801680127B9430160FFF7D8
:10073000EDFDFFF77FFDE248016839430226B14332
:100740000160B80700240C908461FFF799FDFFF762
:1007500011FEA125DB4A284621463B46FFF790FFC4
:10076000D94A284639463B46FFF78AFF0EAA284653
:10077000019631463B46FFF783FFD24800781828A0
:1007800002D3D04800210170CF4A10783C2802D310
:10079000CD48002101700EA80078411E8841CB4948
:1007A0000870CB480770CB4801783802CA4B032940
:1007B000099008D10246C9480021C170817041707A
:1007C00001701A6034E00D91022900D0C44A1078FB
:1007D000C0B20A260B90314600F02EFE0546C148F5
:1007E000405DBE4988700D980228B64800D0BE48CA
:1007F0000078C0B20A90314600F01EFEB94B195C79
:10080000B64A117075430B99491B595CD170464328
:100810000A98801B185C8021014351700D980228B2
:1008200003D10998AC49486002E00998AA490860D8
:10083000FFF712FFA3480B9000780D90C1B2CD25B1
:100840006943C90AA74E725CA44802709E4A079287
:100850001278D3B200956B43DB0AF55C85700A25EC
:100860006B43D21AD2B2B25C9C4BDA700A956943E0
:100870000D98401AC0B2305C80210891084358702E
:100880007D2080000D90994B264609E09348C57065
:100890008570457005702E462F46F64B042C34D2D9
:1008A000F548F649016018780028F7D000251D703A
:1008B000FFF702FD0D98653880B2761CB1B2814217
:1008C000EBD9641C002FE1D17E480078C1B2009DB5
:1008D0006943C90A834E725C804F3A707A4A127833
:1008E000D3B26B43DB0AF55CBD700A9D6B43D21A31
:1008F000D2B2B25CFA706943401AC0B2305C089957
:100900000843787001270026C7E7724F3D78012021
:100910000390E81E4AD00690022D01D0704807903F
:1009200007980078C0B207900A9900F085FD064646
:100930006C48805D69498870022D01D06A480B902F
:100940000B980078C7B238460A9C214600F074FD27
:10095000644A115C614B197066430799891B515CAD
:10096000D9706043381A105C089908435870584889
:100970000078421E014691410122D243069B9342D8
:10098000039A00D30A46002A534E04D1D749097866
:100990000022524B5A54022D4E4FB64B04D1002820
:1009A00002D0099870600AE0099807E000204B49DE
:1009B000C8708870487008700998474E30600120F0
:1009C000049040020B90CA4C03E000200C9988610F
:1009D0001070A948A949016018780028F9D00025AD
:1009E0001D70FFF769FCFFF713FDC24A002800D114
:1009F0003BE31178012905D10020208010700C996B
:100A0000886132E33A78032A2CD135480078C0B2A5
:100A100007900A9C214600F00FFD0646314D285CE8
:100A20002E49887030480078C7B23846214600F019
:100A300003FD295C294A117066430799891B695C8B
:100A4000D1706043AA4C381A224F285C0899084399
:100A5000507001201E4908700020387009981E4906
:100A6000086001E3079200290FD10C9BA24A1A6487
:100A7000A24A9A611D60A24A1580A24A1570C82236
:100A8000A14C22809A4C049A1A60A04A1580A04A70
:100A900015800F4A049B13700246183A130392B252
:100AA00012099A1892B2072A00D9C7E07A4412793B
:100AB000520097441D8DC333C3C3C3BB1C00064003
:100AC000002004406E0000206F0000200000002085
:100AD000010000208400002024A004408C0000209D
:100AE0007A0000202E1600007900002090000020DF
:100AF0000798012800D00DE17C490878401C087057
:100B0000C0B204287B4A00D20AE10020E3490880F1
:100B1000E3490870754908703846FFE0E14A1078EB
:100B2000002800D18BE11570002928460ED10C99C0
:100B3000714B0B64714B8B610D60714B1D80714B60
:100B40001870C820704B1880049808601078411EF7
:100B500088410FAA1070A020022101230793FFF7FC
:100B6000BCFD3D78E81E00D16FE10690022DD7480C
:100B700000D0D7480078C0B205900A9900F05CFC1C
:100B80000746D448C05DD4498870022DD34800D0B0
:100B9000D3480078C4B220460A9E314600F04CFC8F
:100BA000CC4A115CCC4B197077430599C91B515C39
:100BB000D9707043201A105C089908435870DB48BC
:100BC0000078421E01469141079AD243069B14E1E8
:100BD0000798022800D0D5E044490878401C0870E6
:100BE000C0B20428434A00D2D2E00124AF480470C6
:100BF00010AD2C70A026002730463946C94A23463E
:100C0000FFF76BFD30462146B04A2346FFF765FDEE
:100C100002213046C84E2A462346354CFFF75DFD7B
:100C2000344A32480770C54F3846AFE0BC48C570FB
:100C3000857045700570032038700CE10123D9439D
:100C4000079DEA1E8A422B4A00D20EE2022D9F4ADD
:100C50009F4F00D03A4607990229B24900D0B249C5
:100C60000546113D332D00D902E105A66D00755BE7
:100C70006D00AF44900000200C000140AA55FA5AC4
:100C80003900420101013E0101010101010101019F
:100C90000101010101010101010101010101010144
:100CA00040013C0101014401010101010101010177
:100CB0000101010101010101010101010101010124
:100CC0000101010101010101010101010101010114
:100CD0000101010101010101010101010101010104
:100CE00045019F0101013A01072309E17800002035
:100CF000740000206D0000201F4E00000F27000030
:100D00007E0000208200002080000020760000206D
:100D1000860000200120387089488A4A002101702D
:100D20003D78032D7FD0022D684800D068480078B8
:100D3000C0B207900A9900F07FFB06467748805DB5
:100D400077498870022D774800D077480078C7B27D
:100D500038460A9C214600F06FFB704A115C704BCC
:100D6000197066430799891B515CD9706043381A22
:100D7000105C089908435870022D6FD109986E498C
:100D800048606EE0019838706D486E4A002101702D
:100D90003D78E81E47D00790022D4C4800D04C48C3
:100DA0000078C0B206900A9900F046FB06465B4800
:100DB000805D5B498870022D5A4800D05A480078FF
:100DC000C7B238460A9C214600F036FB534A115CF4
:100DD000534B197066430699891B515CD970604367
:100DE000381A105C08990843587052480078421E1F
:100DF000014691410122D243079B9342039A00D3BB
:100E00000A46002A4D4F4C4B04D14D490978002227
:100E1000434C6254022D4C4C0ED10028494A24D038
:100E20000998586021E100203D49C87088704870D9
:100E300008700998306018E10998186014E1049866
:100E40001070002900D172E680E600203449C87095
:100E50008870487008700998306005E10998364933
:100E60000860364F374A384CFFE009981860FCE0BC
:100E7000822801D1002343E0FF230025002D42D129
:100E8000812818D0842800D0B8E02D4800780328A5
:100E900000D9B3E004A3185C400087447C00002024
:100EA0008300002000000020099990960000002097
:100EB00008780A309BE022480078032800D99DE09A
:100EC00078440079400087440D907D866F000020B3
:100ED0007A0000202E1600008C0000206E000020FA
:100EE0007900002008780E3081E0032308E0052314
:100EF00006E0092304E0042302E0082300E00623BF
:100F0000039D002DBCD0157808780D4E3678032E41
:100F100046D807A7BE5D7600B744C0462E1600002F
:100F20008C0000206E0000207900002001000020CD
:100F30001838232E0100002024A004408400002043
:100F4000780000206D000020740000200A9E73438A
:100F5000C6B2009F7E43F60A0A9F7E43801BC018DC
:100F60001DE00A9E7343EEB2009F7E43F60A0A9F7D
:100F70007E43AD1BED1812E0EB18EEB2009F7E43EE
:100F8000F60A0A9F7E43751B5D1908E0C318C6B2B6
:100F9000009F7E43F60A0A9F7E43301A1818F04FCE
:100FA000EBB23B2B00D33B231370C0B2172824D3E2
:100FB000172022E0039D019B002DA4D160E710784B
:100FC0000A300AE01078323007E01078401C04E064
:100FD0000878401C0BE010783B30FA494143090C7B
:100FE0003C234B43C01A107008E008781730F64ACB
:100FF0004243120C18235343C01A08700798022862
:10100000F34800D038460078C0B206900A9900F044
:1010100013FA0646F448805DF44988700798022860
:10102000EA4800D0F2480078C7B238460A9D2946FF
:1010300000F002FAEC4A115CEC4B19706E43069911
:10104000891B515CD9706843381A105C08990843B1
:1010500058700798022803D10998E149486002E0D6
:101060000998DF490860DD4FE64AEC490888401CD2
:10107000088080B2C0087D2867D30025E748058036
:101080003878002861D1E6490878401C0870C0B261
:101090003C285AD3E2480570D24A1078401C1070A0
:1010A000C0B23C280AD31570D1480078401CC1B2A8
:1010B0001729294600D80146CD48017010780790BD
:1010C0000A9C214600F0B8F90746C748C05DC749E9
:1010D0008870C74806783046214600F0ADF933469F
:1010E000079EC149095CC14A11706743F11BBE4F9D
:1010F000795CD1706043181A385C089908435070C5
:101100000998B7490860B34800780028B34FBD4A32
:10111000C44C1AD0AD480078834216D1AC48007850
:10112000864212D10C99B6480864B44888610D60B3
:1011300003981070B6480580BB4820800D98BB4BC3
:1011400018800120BA4B187008603D78032D04D137
:10115000A34E0B983060A74B0BE0B04800880D9968
:1011600088429F4EA34B02D20B98706001E00B980F
:101170003060681E012862D8A6490888401C088093
:101180000D99491E89B280B2884268D90024A148CD
:10119000048091490F787842079778410870E81EDB
:1011A00051D006900294022D894800D08D480078D5
:1011B000C0B205900A9900F03FF906468A48805D62
:1011C0008A498870022D814800D089480078C7B2CA
:1011D00038460A9C214600F02FF9834A115C834B64
:1011E000197066430599891B515CD9706043381AA0
:1011F000105C0899084358700799484248410121FA
:10120000C943069A8A42039900D301460029734FC5
:10121000734E784B7B4A834C09D1774800787349E9
:101220003E462746029C0C543C4637466C4E022DE7
:1012300013D107980028099810D170600FE00120A1
:101240006549087054E06948C47084704470047043
:1012500009983060734C614F01E0099830606E4925
:101260000888401C088080B27249884240D301201F
:10127000594908700021684B198039701278002A8A
:101280000DD10C9A5E4B13645C4B936111605E4B05
:1012900019805E4B1970C8215D4B19801060514850
:1012A0000078C0B207900A9C214600F0C5F80646B7
:1012B0004D4D285C4D4988704D480078C7B238467E
:1012C000214600F0B9F8295C484A11706643079935
:1012D000891B695CD1706043381A285C08990843FF
:1012E000507009983E4E30603C4F424B454A4D4C41
:1012F000107801281CD12088002801D1FFF765FB58
:10130000401E208049490888401E0880000401D002
:10131000FFF75FFB0D980880454A10784142414134
:101320001170002843D000200C998861FFF751FB11
:1013300037490888002815D0401E0880000401D0D5
:10134000FFF747FB00200C9988613048007800289F
:1013500001D1FFF73EFBC8202B490880FFF739FB7E
:101360007A00002028480088002801D1FFF731FBCF
:10137000401E25490880000401D0FFF72AFB2348BE
:101380000078002801D1FFF724FB0C9A1C49116456
:101390001A49916100211160C8211D4C2180214C06
:1013A000401E1A49087001201060FFF712FB0C99CB
:1013B0001348086411488861002008600120086013
:1013C000FFF707FB45040000AB0A00006E00002099
:1013D0006F00002000000020010000208400002099
:1013E00024A004407A0000202E1600008C0000206B
:1013F0007900002090000020780000200F270000D6
:101400001F4E00006D0000207E00002082000020A2
:101410008000002076000020860000207C00002054
:10142000830000207400002060EA000070000020AB
:10143000720000203075000043088B421AD300224E
:1014400003098B4279D3030A8B425ED3030B8B4291
:1014500042D3030C8B4227D30902FF2212BA030C9A
:101460008B4202D31212090203D0030B8B4233D3F7
:101470001AE0D3E0411A8041401C704703460B43F9
:1014800071D443088B42F5D3002203098B4254D315
:10149000030A8B4239D3030B8B421DD3030C8B42BF
:1014A00002D394466EE0090AC30B8B4201D3CB03EF
:1014B000C01A5241830B8B4201D38B03C01A524195
:1014C000430B8B4201D34B03C01A5241030B8B4297
:1014D00001D30B03C01A5241C30A8B4201D3CB0282
:1014E000C01A5241830A8B4201D38B02C01A524167
:1014F000430A8B4201D34B02C01A5241030A8B426A
:1015000001D30B02C01A5241CDD2C3098B4201D381
:10151000CB01C01A524183098B4201D38B01C01AFF
:10152000524143098B4201D34B01C01A5241030976
:101530008B4201D30B01C01A5241C3088B4201D325
:10154000CB00C01A524183088B4201D38B00C01AD2
:10155000524143088B4201D34B00C01A5241411AF9
:10156000524110007047CA0F00D04942031000D307
:101570004042534000229C4603098B422DD3030A6C
:101580008B4212D38901FC2212BA030A8B420CD37C
:10159000890192118B4208D3890192118B4204D3A5
:1015A000890137D0921100E08909C3098B4201D328
:1015B000CB01C01A524183098B4201D38B01C01A5F
:1015C000524143098B4201D34B01C01A52410309D6
:1015D0008B4201D30B01C01A5241C3088B4201D385
:1015E000CB00C01A524183088B4201D38B00C01A32
:1015F0005241D9D243088B4201D34B00C01A524109
:10160000411A00D201465241104663465B1000D396
:101610004042704763465B1000D3404201B5002151
:10162000004201D0C9430846C046C04602BD3F063D
:101630005B4F666D7D077F6F777C395E79717100D6
:101640006016000000000020040000001C010000E3
:101650006416000008000020900200003C01000019
:041660000101000084
:020000040000FA
:047FFC005555AAAA83
:040000050000018175
:00000001FF
